{
  "_format": "hh-sol-artifact-1",
  "contractName": "Voting",
  "sourceName": "contracts/Voting.sol",
  "abi": [
    {
      "anonymous": false,
      "inputs": [
        {
          "indexed": true,
          "internalType": "address",
          "name": "voter",
          "type": "address"
        },
        {
          "indexed": true,
          "internalType": "uint256",
          "name": "candidateId",
          "type": "uint256"
        }
      ],
      "name": "Voted",
      "type": "event"
    },
    {
      "inputs": [
        {
          "internalType": "uint256",
          "name": "candidateId",
          "type": "uint256"
        }
      ],
      "name": "getVotes",
      "outputs": [
        {
          "internalType": "uint256",
          "name": "",
          "type": "uint256"
        }
      ],
      "stateMutability": "view",
      "type": "function"
    },
    {
      "inputs": [
        {
          "internalType": "address",
          "name": "addr",
          "type": "address"
        }
      ],
      "name": "hasAddressVoted",
      "outputs": [
        {
          "internalType": "bool",
          "name": "",
          "type": "bool"
        }
      ],
      "stateMutability": "view",
      "type": "function"
    },
    {
      "inputs": [
        {
          "internalType": "address",
          "name": "",
          "type": "address"
        }
      ],
      "name": "hasVoted",
      "outputs": [
        {
          "internalType": "bool",
          "name": "",
          "type": "bool"
        }
      ],
      "stateMutability": "view",
      "type": "function"
    },
    {
      "inputs": [
        {
          "internalType": "uint256",
          "name": "candidateId",
          "type": "uint256"
        }
      ],
      "name": "vote",
      "outputs": [],
      "stateMutability": "nonpayable",
      "type": "function"
    },
    {
      "inputs": [
        {
          "internalType": "uint256",
          "name": "",
          "type": "uint256"
        }
      ],
      "name": "votesReceived",
      "outputs": [
        {
          "internalType": "uint256",
          "name": "",
          "type": "uint256"
        }
      ],
      "stateMutability": "view",
      "type": "function"
    }
  ],
  "bytecode": "0x6080604052348015600f57600080fd5b506105a08061001f6000396000f3fe608060405234801561001057600080fd5b50600436106100575760003560e01c80630121b93f1461005c57806309eef43e14610078578063e3e6ca7d146100a8578063f3084a63146100d8578063ff98109914610108575b600080fd5b61007660048036038101906100719190610372565b610138565b005b610092600480360381019061008d91906103fd565b61028d565b60405161009f9190610445565b60405180910390f35b6100c260048036038101906100bd91906103fd565b6102ad565b6040516100cf9190610445565b60405180910390f35b6100f260048036038101906100ed9190610372565b610303565b6040516100ff919061046f565b60405180910390f35b610122600480360381019061011d9190610372565b61031b565b60405161012f919061046f565b60405180910390f35b600160003373ffffffffffffffffffffffffffffffffffffffff1673ffffffffffffffffffffffffffffffffffffffff16815260200190815260200160002060009054906101000a900460ff16156101c5576040517f08c379a00000000000000000000000000000000000000000000000000000000081526004016101bc906104e7565b60405180910390fd5b600160008083815260200190815260200160002060008282546101e89190610536565b9250508190555060018060003373ffffffffffffffffffffffffffffffffffffffff1673ffffffffffffffffffffffffffffffffffffffff16815260200190815260200160002060006101000a81548160ff021916908315150217905550803373ffffffffffffffffffffffffffffffffffffffff167f4d99b957a2bc29a30ebd96a7be8e68fe50a3c701db28a91436490b7d53870ca460405160405180910390a350565b60016020528060005260406000206000915054906101000a900460ff1681565b6000600160008373ffffffffffffffffffffffffffffffffffffffff1673ffffffffffffffffffffffffffffffffffffffff16815260200190815260200160002060009054906101000a900460ff169050919050565b60006020528060005260406000206000915090505481565b6000806000838152602001908152602001600020549050919050565b600080fd5b6000819050919050565b61034f8161033c565b811461035a57600080fd5b50565b60008135905061036c81610346565b92915050565b60006020828403121561038857610387610337565b5b60006103968482850161035d565b91505092915050565b600073ffffffffffffffffffffffffffffffffffffffff82169050919050565b60006103ca8261039f565b9050919050565b6103da816103bf565b81146103e557600080fd5b50565b6000813590506103f7816103d1565b92915050565b60006020828403121561041357610412610337565b5b6000610421848285016103e8565b91505092915050565b60008115159050919050565b61043f8161042a565b82525050565b600060208201905061045a6000830184610436565b92915050565b6104698161033c565b82525050565b60006020820190506104846000830184610460565b92915050565b600082825260208201905092915050565b7f596f75206861766520616c726561647920766f74656400000000000000000000600082015250565b60006104d160168361048a565b91506104dc8261049b565b602082019050919050565b60006020820190508181036000830152610500816104c4565b9050919050565b7f4e487b7100000000000000000000000000000000000000000000000000000000600052601160045260246000fd5b60006105418261033c565b915061054c8361033c565b925082820190508082111561056457610563610507565b5b9291505056fea2646970667358221220569143923130b2de432030971e36f7269dc73cb1071ba1dabc04a4cc34bc3f5964736f6c634300081c0033",
  "linkReferences": {},
  "deployedLinkReferences": {}
}